{
  "contractName": "StripeMarket",
  "abi": [
    {
      "inputs": [],
      "stateMutability": "nonpayable",
      "type": "constructor"
    },
    {
      "anonymous": false,
      "inputs": [
        {
          "indexed": true,
          "internalType": "uint256",
          "name": "itemId",
          "type": "uint256"
        },
        {
          "indexed": true,
          "internalType": "address",
          "name": "nftContract",
          "type": "address"
        },
        {
          "indexed": true,
          "internalType": "uint256",
          "name": "tokenId",
          "type": "uint256"
        },
        {
          "indexed": false,
          "internalType": "string",
          "name": "name",
          "type": "string"
        },
        {
          "indexed": false,
          "internalType": "string",
          "name": "tokenUri",
          "type": "string"
        },
        {
          "indexed": false,
          "internalType": "address",
          "name": "seller",
          "type": "address"
        },
        {
          "indexed": false,
          "internalType": "address",
          "name": "owner",
          "type": "address"
        },
        {
          "indexed": false,
          "internalType": "uint256",
          "name": "price",
          "type": "uint256"
        },
        {
          "indexed": false,
          "internalType": "bool",
          "name": "sold",
          "type": "bool"
        },
        {
          "indexed": false,
          "internalType": "bool",
          "name": "paid",
          "type": "bool"
        }
      ],
      "name": "MarketItemCreated",
      "type": "event"
    },
    {
      "inputs": [
        {
          "internalType": "uint256",
          "name": "",
          "type": "uint256"
        }
      ],
      "name": "idToMarketItem",
      "outputs": [
        {
          "internalType": "uint256",
          "name": "itemId",
          "type": "uint256"
        },
        {
          "internalType": "address",
          "name": "nftContract",
          "type": "address"
        },
        {
          "internalType": "uint256",
          "name": "tokenId",
          "type": "uint256"
        },
        {
          "internalType": "string",
          "name": "name",
          "type": "string"
        },
        {
          "internalType": "string",
          "name": "tokenUri",
          "type": "string"
        },
        {
          "internalType": "address payable",
          "name": "seller",
          "type": "address"
        },
        {
          "internalType": "address payable",
          "name": "owner",
          "type": "address"
        },
        {
          "internalType": "uint256",
          "name": "price",
          "type": "uint256"
        },
        {
          "internalType": "bool",
          "name": "sold",
          "type": "bool"
        },
        {
          "internalType": "bool",
          "name": "paid",
          "type": "bool"
        }
      ],
      "stateMutability": "view",
      "type": "function",
      "constant": true
    },
    {
      "inputs": [],
      "name": "listingPrice",
      "outputs": [
        {
          "internalType": "uint256",
          "name": "",
          "type": "uint256"
        }
      ],
      "stateMutability": "view",
      "type": "function",
      "constant": true
    },
    {
      "stateMutability": "payable",
      "type": "receive",
      "payable": true
    },
    {
      "inputs": [],
      "name": "getListingPrice",
      "outputs": [
        {
          "internalType": "uint256",
          "name": "",
          "type": "uint256"
        }
      ],
      "stateMutability": "view",
      "type": "function",
      "constant": true
    },
    {
      "inputs": [],
      "name": "getItemId",
      "outputs": [
        {
          "internalType": "uint256",
          "name": "",
          "type": "uint256"
        }
      ],
      "stateMutability": "view",
      "type": "function",
      "constant": true
    },
    {
      "inputs": [
        {
          "internalType": "uint256",
          "name": "itemId",
          "type": "uint256"
        }
      ],
      "name": "setPaid",
      "outputs": [],
      "stateMutability": "nonpayable",
      "type": "function"
    },
    {
      "inputs": [
        {
          "internalType": "address",
          "name": "nftContract",
          "type": "address"
        },
        {
          "internalType": "uint256",
          "name": "tokenId",
          "type": "uint256"
        },
        {
          "internalType": "uint256",
          "name": "price",
          "type": "uint256"
        },
        {
          "internalType": "string",
          "name": "name",
          "type": "string"
        }
      ],
      "name": "createItem",
      "outputs": [],
      "stateMutability": "payable",
      "type": "function",
      "payable": true
    },
    {
      "inputs": [
        {
          "internalType": "address",
          "name": "nftContract",
          "type": "address"
        },
        {
          "internalType": "address",
          "name": "buyer",
          "type": "address"
        },
        {
          "internalType": "uint256",
          "name": "itemId",
          "type": "uint256"
        }
      ],
      "name": "createMarketSale",
      "outputs": [],
      "stateMutability": "payable",
      "type": "function",
      "payable": true
    },
    {
      "inputs": [],
      "name": "getItems",
      "outputs": [
        {
          "components": [
            {
              "internalType": "uint256",
              "name": "itemId",
              "type": "uint256"
            },
            {
              "internalType": "address",
              "name": "nftContract",
              "type": "address"
            },
            {
              "internalType": "uint256",
              "name": "tokenId",
              "type": "uint256"
            },
            {
              "internalType": "string",
              "name": "name",
              "type": "string"
            },
            {
              "internalType": "string",
              "name": "tokenUri",
              "type": "string"
            },
            {
              "internalType": "address payable",
              "name": "seller",
              "type": "address"
            },
            {
              "internalType": "address payable",
              "name": "owner",
              "type": "address"
            },
            {
              "internalType": "uint256",
              "name": "price",
              "type": "uint256"
            },
            {
              "internalType": "bool",
              "name": "sold",
              "type": "bool"
            },
            {
              "internalType": "bool",
              "name": "paid",
              "type": "bool"
            }
          ],
          "internalType": "struct StripeMarket.MarketItem[]",
          "name": "",
          "type": "tuple[]"
        }
      ],
      "stateMutability": "view",
      "type": "function",
      "constant": true
    },
    {
      "inputs": [],
      "name": "fetchMarketItems",
      "outputs": [
        {
          "components": [
            {
              "internalType": "uint256",
              "name": "itemId",
              "type": "uint256"
            },
            {
              "internalType": "address",
              "name": "nftContract",
              "type": "address"
            },
            {
              "internalType": "uint256",
              "name": "tokenId",
              "type": "uint256"
            },
            {
              "internalType": "string",
              "name": "name",
              "type": "string"
            },
            {
              "internalType": "string",
              "name": "tokenUri",
              "type": "string"
            },
            {
              "internalType": "address payable",
              "name": "seller",
              "type": "address"
            },
            {
              "internalType": "address payable",
              "name": "owner",
              "type": "address"
            },
            {
              "internalType": "uint256",
              "name": "price",
              "type": "uint256"
            },
            {
              "internalType": "bool",
              "name": "sold",
              "type": "bool"
            },
            {
              "internalType": "bool",
              "name": "paid",
              "type": "bool"
            }
          ],
          "internalType": "struct StripeMarket.MarketItem[]",
          "name": "",
          "type": "tuple[]"
        }
      ],
      "stateMutability": "view",
      "type": "function",
      "constant": true
    },
    {
      "inputs": [],
      "name": "fetchMyNFTs",
      "outputs": [
        {
          "components": [
            {
              "internalType": "uint256",
              "name": "itemId",
              "type": "uint256"
            },
            {
              "internalType": "address",
              "name": "nftContract",
              "type": "address"
            },
            {
              "internalType": "uint256",
              "name": "tokenId",
              "type": "uint256"
            },
            {
              "internalType": "string",
              "name": "name",
              "type": "string"
            },
            {
              "internalType": "string",
              "name": "tokenUri",
              "type": "string"
            },
            {
              "internalType": "address payable",
              "name": "seller",
              "type": "address"
            },
            {
              "internalType": "address payable",
              "name": "owner",
              "type": "address"
            },
            {
              "internalType": "uint256",
              "name": "price",
              "type": "uint256"
            },
            {
              "internalType": "bool",
              "name": "sold",
              "type": "bool"
            },
            {
              "internalType": "bool",
              "name": "paid",
              "type": "bool"
            }
          ],
          "internalType": "struct StripeMarket.MarketItem[]",
          "name": "",
          "type": "tuple[]"
        }
      ],
      "stateMutability": "view",
      "type": "function",
      "constant": true
    },
    {
      "inputs": [],
      "name": "fetchItemsCreated",
      "outputs": [
        {
          "components": [
            {
              "internalType": "uint256",
              "name": "itemId",
              "type": "uint256"
            },
            {
              "internalType": "address",
              "name": "nftContract",
              "type": "address"
            },
            {
              "internalType": "uint256",
              "name": "tokenId",
              "type": "uint256"
            },
            {
              "internalType": "string",
              "name": "name",
              "type": "string"
            },
            {
              "internalType": "string",
              "name": "tokenUri",
              "type": "string"
            },
            {
              "internalType": "address payable",
              "name": "seller",
              "type": "address"
            },
            {
              "internalType": "address payable",
              "name": "owner",
              "type": "address"
            },
            {
              "internalType": "uint256",
              "name": "price",
              "type": "uint256"
            },
            {
              "internalType": "bool",
              "name": "sold",
              "type": "bool"
            },
            {
              "internalType": "bool",
              "name": "paid",
              "type": "bool"
            }
          ],
          "internalType": "struct StripeMarket.MarketItem[]",
          "name": "",
          "type": "tuple[]"
        }
      ],
      "stateMutability": "view",
      "type": "function",
      "constant": true
    }
  ],
  "bytecode": "0x6080604052600260045534801561001557600080fd5b506001600055600380546001600160a01b03191633179055611a138061003c6000396000f3fe6080604052600436106100a05760003560e01c80636d25e48e116100645780636d25e48e14610135578063a211836514610172578063c78f19f914610185578063db84f8a91461019b578063e61a70c0146101ae578063f064c32e146101e457600080fd5b80630f08efe0146100ac57806312e85585146100d7578063202e3740146100f6578063410d59cc1461010b578063445f76d71461012057600080fd5b366100a757005b600080fd5b3480156100b857600080fd5b506100c16101f9565b6040516100ce91906114fa565b60405180910390f35b3480156100e357600080fd5b506004545b6040519081526020016100ce565b34801561010257600080fd5b506100c16104ca565b34801561011757600080fd5b506100c16107d9565b34801561012c57600080fd5b506100e8610a4c565b34801561014157600080fd5b506101706101503660046115ff565b6000908152600560205260409020600801805461ff001916610100179055565b005b610170610180366004611634565b610a5e565b34801561019157600080fd5b506100e860045481565b6101706101a93660046116dd565b610bd8565b3480156101ba57600080fd5b506101ce6101c93660046115ff565b610f25565b6040516100ce9a99989796959493929190611780565b3480156101f057600080fd5b506100c16110a3565b6060600061020660015490565b9050600061021360025490565b6001546102209190611813565b9050600080826001600160401b0381111561023d5761023d611670565b60405190808252806020026020018201604052801561027657816020015b6102636113b2565b81526020019060019003908161025b5790505b50905060005b848110156104c157600060058161029484600161182a565b81526020810191909152604001600020600601546001600160a01b031614156104af5760006102c482600161182a565b6000818152600560209081526040918290208251610140810184528154815260018201546001600160a01b03169281019290925260028101549282019290925260038201805493945091929091839160608401919061032290611842565b80601f016020809104026020016040519081016040528092919081815260200182805461034e90611842565b801561039b5780601f106103705761010080835404028352916020019161039b565b820191906000526020600020905b81548152906001019060200180831161037e57829003601f168201915b505050505081526020016004820180546103b490611842565b80601f01602080910402602001604051908101604052809291908181526020018280546103e090611842565b801561042d5780601f106104025761010080835404028352916020019161042d565b820191906000526020600020905b81548152906001019060200180831161041057829003601f168201915b505050918352505060058201546001600160a01b03908116602083015260068301541660408201526007820154606082015260089091015460ff8082161515608084015261010090910416151560a09091015284518590879081106104945761049461187d565b60209081029190910101526104aa60018661182a565b945050505b806104b981611893565b91505061027c565b50949350505050565b606060006104d760015490565b905060008060005b8381101561053a5733600560006104f784600161182a565b81526020810191909152604001600020600601546001600160a01b031614156105285761052560018461182a565b92505b8061053281611893565b9150506104df565b506000826001600160401b0381111561055557610555611670565b60405190808252806020026020018201604052801561058e57816020015b61057b6113b2565b8152602001906001900390816105735790505b50905060005b848110156104c15733600560006105ac84600161182a565b81526020810191909152604001600020600601546001600160a01b031614156107c75760006105dc82600161182a565b6000818152600560209081526040918290208251610140810184528154815260018201546001600160a01b03169281019290925260028101549282019290925260038201805493945091929091839160608401919061063a90611842565b80601f016020809104026020016040519081016040528092919081815260200182805461066690611842565b80156106b35780601f10610688576101008083540402835291602001916106b3565b820191906000526020600020905b81548152906001019060200180831161069657829003601f168201915b505050505081526020016004820180546106cc90611842565b80601f01602080910402602001604051908101604052809291908181526020018280546106f890611842565b80156107455780601f1061071a57610100808354040283529160200191610745565b820191906000526020600020905b81548152906001019060200180831161072857829003601f168201915b505050918352505060058201546001600160a01b03908116602083015260068301541660408201526007820154606082015260089091015460ff8082161515608084015261010090910416151560a09091015284518590879081106107ac576107ac61187d565b60209081029190910101526107c260018661182a565b945050505b806107d181611893565b915050610594565b606060006107e660015490565b90506000816001600160401b0381111561080257610802611670565b60405190808252806020026020018201604052801561083b57816020015b6108286113b2565b8152602001906001900390816108205790505b50905060005b82811015610a4557600060058161085984600161182a565b815260208082019290925260409081016000208151610140810183528154815260018201546001600160a01b0316938101939093526002810154918301919091526003810180546060840191906108af90611842565b80601f01602080910402602001604051908101604052809291908181526020018280546108db90611842565b80156109285780601f106108fd57610100808354040283529160200191610928565b820191906000526020600020905b81548152906001019060200180831161090b57829003601f168201915b5050505050815260200160048201805461094190611842565b80601f016020809104026020016040519081016040528092919081815260200182805461096d90611842565b80156109ba5780601f1061098f576101008083540402835291602001916109ba565b820191906000526020600020905b81548152906001019060200180831161099d57829003601f168201915b505050918352505060058201546001600160a01b03908116602083015260068301541660408201526007820154606082015260089091015460ff8082161515608084015261010090910416151560a09091015283519091508190849084908110610a2657610a2661187d565b6020026020010181905250508080610a3d90611893565b915050610841565b5092915050565b600080610a5860015490565b92915050565b60026000541415610a8a5760405162461bcd60e51b8152600401610a81906118ae565b60405180910390fd5b60026000818155828152600560208190526040808320600781015494810154920154905191926001600160a01b039091169184156108fc0291859190818181858888f19350505050158015610ae3573d6000803e3d6000fd5b506040516323b872dd60e01b81526001600160a01b038616906323b872dd90610b14903090889086906004016118e5565b600060405180830381600087803b158015610b2e57600080fd5b505af1158015610b42573d6000803e3d6000fd5b50505060008481526005602052604090206006810180546001600160a01b0388166001600160a01b0319909116179055600801805460ff1916600117905550610b8f600280546001019055565b6003546004546040516001600160a01b039092169181156108fc0291906000818181858888f19350505050158015610bcb573d6000803e3d6000fd5b5050600160005550505050565b60026000541415610bfb5760405162461bcd60e51b8152600401610a81906118ae565b60026000556001821015610c4c5760405162461bcd60e51b81526020600482015260186024820152776174206c65617374206d6f7265207468616e20312077656960401b6044820152606401610a81565b6004543414610c965760405162461bcd60e51b81526020600482015260166024820152751b1a5cdd1a5b99c81c1c9a58d9481b9bdd081c185a5960521b6044820152606401610a81565b60405163c87b56dd60e01b8152600481018490526000906001600160a01b0386169063c87b56dd9060240160006040518083038186803b158015610cd957600080fd5b505afa158015610ced573d6000803e3d6000fd5b505050506040513d6000823e601f3d908101601f19168201604052610d159190810190611909565b9050610d25600180546001019055565b6000610d3060015490565b60408051610140810182528281526001600160a01b0389811660208084019182528385018b8152606085018a8152608086018a90523360a0870152600060c0870181905260e087018d90526101008701819052610120870181905288815260058452969096208551815592516001840180546001600160a01b031916919095161790935591516002820155925180519495509193849392610dd8926003850192910190611405565b5060808201518051610df4916004840191602090910190611405565b5060a08201516005820180546001600160a01b03199081166001600160a01b039384161790915560c084015160068401805490921690831617905560e0830151600783015561010080840151600890930180546101209095015161ffff1990951693151561ff00191693909317931515029290921790556040516323b872dd60e01b8152908816906323b872dd90610e9490339030908b906004016118e5565b600060405180830381600087803b158015610eae57600080fd5b505af1158015610ec2573d6000803e3d6000fd5b5050505085876001600160a01b0316837fc7d1354d53044c1666b90fbdf3716325847929561b5eddbd6b0d76ec7fc4768587873360008c600080604051610f0f979695949392919061197f565b60405180910390a4505060016000555050505050565b600560205260009081526040902080546001820154600283015460038401805493946001600160a01b0390931693919291610f5f90611842565b80601f0160208091040260200160405190810160405280929190818152602001828054610f8b90611842565b8015610fd85780601f10610fad57610100808354040283529160200191610fd8565b820191906000526020600020905b815481529060010190602001808311610fbb57829003601f168201915b505050505090806004018054610fed90611842565b80601f016020809104026020016040519081016040528092919081815260200182805461101990611842565b80156110665780601f1061103b57610100808354040283529160200191611066565b820191906000526020600020905b81548152906001019060200180831161104957829003601f168201915b5050505060058301546006840154600785015460089095015493946001600160a01b03928316949290911692509060ff808216916101009004168a565b606060006110b060015490565b905060008060005b838110156111135733600560006110d084600161182a565b81526020810191909152604001600020600501546001600160a01b03161415611101576110fe60018461182a565b92505b8061110b81611893565b9150506110b8565b506000826001600160401b0381111561112e5761112e611670565b60405190808252806020026020018201604052801561116757816020015b6111546113b2565b81526020019060019003908161114c5790505b50905060005b848110156104c157336005600061118584600161182a565b81526020810191909152604001600020600501546001600160a01b031614156113a05760006111b582600161182a565b6000818152600560209081526040918290208251610140810184528154815260018201546001600160a01b03169281019290925260028101549282019290925260038201805493945091929091839160608401919061121390611842565b80601f016020809104026020016040519081016040528092919081815260200182805461123f90611842565b801561128c5780601f106112615761010080835404028352916020019161128c565b820191906000526020600020905b81548152906001019060200180831161126f57829003601f168201915b505050505081526020016004820180546112a590611842565b80601f01602080910402602001604051908101604052809291908181526020018280546112d190611842565b801561131e5780601f106112f35761010080835404028352916020019161131e565b820191906000526020600020905b81548152906001019060200180831161130157829003601f168201915b505050918352505060058201546001600160a01b03908116602083015260068301541660408201526007820154606082015260089091015460ff8082161515608084015261010090910416151560a09091015284518590879081106113855761138561187d565b602090810291909101015261139b60018661182a565b945050505b806113aa81611893565b91505061116d565b60408051610140810182526000808252602082018190529181018290526060808201819052608082015260a0810182905260c0810182905260e08101829052610100810182905261012081019190915290565b82805461141190611842565b90600052602060002090601f0160209004810192826114335760008555611479565b82601f1061144c57805160ff1916838001178555611479565b82800160010185558215611479579182015b8281111561147957825182559160200191906001019061145e565b50611485929150611489565b5090565b5b80821115611485576000815560010161148a565b60005b838110156114b95781810151838201526020016114a1565b838111156114c8576000848401525b50505050565b600081518084526114e681602086016020860161149e565b601f01601f19169290920160200192915050565b60006020808301818452808551808352604092508286019150828160051b87010184880160005b838110156115f157888303603f19018552815180518452878101516001600160a01b0381168986015261014090508782015188860152606080830151828288015261156e838801826114ce565b925050506080808301518683038288015261158983826114ce565b9250505060a0808301516115a7828801826001600160a01b03169052565b505060c0828101516001600160a01b03169086015260e080830151908601526101008083015115159086015261012091820151151591909401529386019390860190600101611521565b509098975050505050505050565b60006020828403121561161157600080fd5b5035919050565b80356001600160a01b038116811461162f57600080fd5b919050565b60008060006060848603121561164957600080fd5b61165284611618565b925061166060208501611618565b9150604084013590509250925092565b634e487b7160e01b600052604160045260246000fd5b604051601f8201601f191681016001600160401b03811182821017156116ae576116ae611670565b604052919050565b60006001600160401b038211156116cf576116cf611670565b50601f01601f191660200190565b600080600080608085870312156116f357600080fd5b6116fc85611618565b9350602085013592506040850135915060608501356001600160401b0381111561172557600080fd5b8501601f8101871361173657600080fd5b8035611749611744826116b6565b611686565b81815288602083850101111561175e57600080fd5b8160208401602083013760006020838301015280935050505092959194509250565b8a81526001600160a01b038a81166020830152604082018a9052610140606083018190526000916117b38483018c6114ce565b915083820360808501526117c7828b6114ce565b98811660a08501529690961660c08301525060e08101939093529015156101008301521515610120909101525095945050505050565b634e487b7160e01b600052601160045260246000fd5b600082821015611825576118256117fd565b500390565b6000821982111561183d5761183d6117fd565b500190565b600181811c9082168061185657607f821691505b6020821081141561187757634e487b7160e01b600052602260045260246000fd5b50919050565b634e487b7160e01b600052603260045260246000fd5b60006000198214156118a7576118a76117fd565b5060010190565b6020808252601f908201527f5265656e7472616e637947756172643a207265656e7472616e742063616c6c00604082015260600190565b6001600160a01b039384168152919092166020820152604081019190915260600190565b60006020828403121561191b57600080fd5b81516001600160401b0381111561193157600080fd5b8201601f8101841361194257600080fd5b8051611950611744826116b6565b81815285602083850101111561196557600080fd5b61197682602083016020860161149e565b95945050505050565b60e08152600061199260e083018a6114ce565b82810360208401526119a4818a6114ce565b6001600160a01b03988916604085015296909716606083015250608081019390935290151560a0830152151560c090910152939250505056fea2646970667358221220b63e3fe73db9d745bc247813ba57d90dda34aa698ef7be9609044b3b68b20b4164736f6c63430008090033",
  "immutableReferences": {},
  "source": "pragma solidity ^0.8.3;\r\n\r\nimport \"@openzeppelin/contracts/utils/Counters.sol\";\r\nimport \"@openzeppelin/contracts/security/ReentrancyGuard.sol\";\r\nimport \"@openzeppelin/contracts/token/ERC721/IERC721.sol\";\r\nimport \"@openzeppelin/contracts/token/ERC721/extensions/IERC721Metadata.sol\";\r\n\r\ncontract StripeMarket is ReentrancyGuard{\r\n  using Counters for Counters.Counter;\r\n    Counters.Counter private _itemIds;\r\n    Counters.Counter private _itemsSold;\r\n\r\n    address payable owner;\r\n    uint256 public listingPrice = 2 ;\r\n\r\n  constructor() {\r\n    owner = payable(msg.sender);\r\n  }\r\n  struct MarketItem {\r\n    uint itemId;\r\n    address nftContract;\r\n    uint256 tokenId;\r\n    string name;\r\n    string tokenUri;\r\n    address payable seller;\r\n    address payable owner;\r\n    uint256 price;\r\n    bool sold;\r\n    bool paid;\r\n  }\r\n\r\n  mapping(uint256 => MarketItem) public idToMarketItem;\r\n\r\n  event MarketItemCreated (\r\n    uint indexed itemId,\r\n    address indexed nftContract,\r\n    uint256 indexed tokenId,\r\n    string name,\r\n    string tokenUri,\r\n    address seller,\r\n    address owner,\r\n    uint256 price,\r\n    bool sold,\r\n    bool paid\r\n  );\r\n\r\n  function getListingPrice() public view returns (uint256) {\r\n    return listingPrice;\r\n  }\r\n\r\n  function getItemId() public view returns(uint256) {\r\n    uint256 itemId = _itemIds.current();\r\n    return  itemId;\r\n  }\r\n  receive () external payable {}\r\n\r\n  function setPaid (uint256 itemId) public {\r\n    idToMarketItem[itemId].paid = true;\r\n  }\r\n\r\n  function createItem(\r\n    address nftContract,\r\n    uint256 tokenId,\r\n    uint256 price,\r\n    string memory name\r\n    ) public payable nonReentrant{\r\n    require(price>=1, 'at least more than 1 wei');\r\n    require(msg.value == listingPrice, \"listing price not paid\");\r\n    string memory tUri = IERC721Metadata(nftContract).tokenURI(tokenId);\r\n    _itemIds.increment();\r\n    uint256 itemId = _itemIds.current();\r\n    MarketItem memory item =  MarketItem(\r\n      itemId,\r\n      nftContract,\r\n      tokenId,\r\n      name,\r\n      tUri,\r\n      payable(msg.sender),\r\n      payable(address(0)),\r\n      price,\r\n      false,\r\n      false\r\n      );\r\n    idToMarketItem[itemId] = item;\r\n    IERC721(nftContract).transferFrom(msg.sender, address(this),tokenId);\r\n    emit MarketItemCreated(\r\n      itemId,\r\n      nftContract,\r\n      tokenId,\r\n      name,\r\n      tUri,\r\n      msg.sender,\r\n      address(0),\r\n      price,\r\n      false,\r\n      false\r\n      );\r\n  }\r\n\r\n  function createMarketSale(\r\n  address nftContract,\r\n  address buyer,\r\n  uint256 itemId\r\n  ) public payable nonReentrant{\r\n    uint price = idToMarketItem[itemId].price;\r\n    uint tokenId = idToMarketItem[itemId].tokenId;\r\n\r\n    idToMarketItem[itemId].seller.transfer(price);\r\n    IERC721(nftContract).transferFrom(address(this), buyer, tokenId);\r\n    idToMarketItem[itemId].owner = payable(buyer);\r\n    idToMarketItem[itemId].sold = true;\r\n    _itemsSold.increment();\r\n    payable(owner).transfer(listingPrice);\r\n}\r\n\r\n  function getItems() public view returns (MarketItem[] memory) {\r\n    uint256 itemId = _itemIds.current();\r\n    MarketItem[] memory items = new MarketItem[](itemId);\r\n    for (uint256 i =0; i<itemId; i++){\r\n      MarketItem memory item = idToMarketItem[i+1];\r\n      items[i] = item;\r\n    }\r\n    return items ;\r\n  }\r\n\r\n  function fetchMarketItems() public view returns (MarketItem[] memory) {\r\n    uint itemCount = _itemIds.current();\r\n    uint unsoldItemCount = _itemIds.current() - _itemsSold.current();\r\n    uint currentIndex = 0;\r\n\r\n    MarketItem[] memory items = new MarketItem[](unsoldItemCount);\r\n    for (uint i = 0; i < itemCount; i++) {\r\n      if (idToMarketItem[i + 1].owner == address(0)) {\r\n        uint currentId = i + 1;\r\n        MarketItem storage currentItem = idToMarketItem[currentId];\r\n        items[currentIndex] = currentItem;\r\n        currentIndex += 1;\r\n      }\r\n    }\r\n    return items;\r\n  }\r\n\r\n  function fetchMyNFTs() public view returns (MarketItem[] memory) {\r\n    uint totalItemCount = _itemIds.current();\r\n    uint itemCount = 0;\r\n    uint currentIndex = 0;\r\n\r\n    for (uint i = 0; i < totalItemCount; i++) {\r\n      if (idToMarketItem[i + 1].owner == msg.sender) {\r\n        itemCount += 1;\r\n      }\r\n    }\r\n\r\n    MarketItem[] memory items = new MarketItem[](itemCount);\r\n    for (uint i = 0; i < totalItemCount; i++) {\r\n      if (idToMarketItem[i + 1].owner == msg.sender) {\r\n        uint currentId = i + 1;\r\n        MarketItem storage currentItem = idToMarketItem[currentId];\r\n        items[currentIndex] = currentItem;\r\n        currentIndex += 1;\r\n      }\r\n    }\r\n    return items;\r\n  }\r\n\r\n  function fetchItemsCreated() public view returns (MarketItem[] memory) {\r\n    uint totalItemCount = _itemIds.current();\r\n    uint itemCount = 0;\r\n    uint currentIndex = 0;\r\n\r\n    for (uint i = 0; i < totalItemCount; i++) {\r\n      if (idToMarketItem[i + 1].seller == msg.sender) {\r\n        itemCount += 1;\r\n      }\r\n    }\r\n\r\n    MarketItem[] memory items = new MarketItem[](itemCount);\r\n    for (uint i = 0; i < totalItemCount; i++) {\r\n      if (idToMarketItem[i + 1].seller == msg.sender) {\r\n        uint currentId = i + 1;\r\n        MarketItem storage currentItem = idToMarketItem[currentId];\r\n        items[currentIndex] = currentItem;\r\n        currentIndex += 1;\r\n      }\r\n    }\r\n    return items;\r\n  }\r\n}\r\n",
  "sourcePath": "C:/Users/Sonika Agarwal/desktop/deedfi/contracts/StripeMarket.sol",
  "compiler": {
    "name": "solc",
    "version": "0.8.9+commit.e5eed63a.Emscripten.clang"
  },
  "schemaVersion": "3.4.1",
  "updatedAt": "2021-09-30T17:52:35.978Z",
  "networkType": "ethereum",
  "devdoc": {
    "kind": "dev",
    "methods": {},
    "version": 1
  },
  "userdoc": {
    "kind": "user",
    "methods": {},
    "version": 1
  }
}